{
  "contractName": "MedicalRecord",
  "abi": [
    {
      "constant": true,
      "inputs": [
        {
          "name": "",
          "type": "uint256"
        }
      ],
      "name": "listMedicalRecords",
      "outputs": [
        {
          "name": "",
          "type": "address"
        }
      ],
      "payable": false,
      "stateMutability": "view",
      "type": "function",
      "signature": "0x28be32d0"
    },
    {
      "constant": false,
      "inputs": [],
      "name": "getOwned",
      "outputs": [],
      "payable": false,
      "stateMutability": "nonpayable",
      "type": "function",
      "signature": "0xc3027525"
    },
    {
      "anonymous": false,
      "inputs": [
        {
          "indexed": false,
          "name": "doctorFName",
          "type": "bytes16"
        },
        {
          "indexed": false,
          "name": "doctorLName",
          "type": "bytes16"
        },
        {
          "indexed": false,
          "name": "specialty",
          "type": "bytes16"
        },
        {
          "indexed": false,
          "name": "epicrisis",
          "type": "bytes32"
        },
        {
          "indexed": false,
          "name": "diagnosis",
          "type": "bytes32"
        },
        {
          "indexed": false,
          "name": "medication",
          "type": "bytes32"
        },
        {
          "indexed": false,
          "name": "medicalLeave",
          "type": "bool"
        }
      ],
      "name": "medRecordEvent",
      "type": "event",
      "signature": "0xc6480e72543a46ce1ca731e7773d18cfd6666e68979d513ca9cd5bd6c140d961"
    },
    {
      "constant": false,
      "inputs": [
        {
          "name": "_address",
          "type": "address"
        },
        {
          "name": "doctorFName",
          "type": "bytes16"
        },
        {
          "name": "doctorLName",
          "type": "bytes16"
        },
        {
          "name": "specialty",
          "type": "bytes16"
        },
        {
          "name": "epicrisis",
          "type": "bytes32"
        },
        {
          "name": "diagnosis",
          "type": "bytes32"
        },
        {
          "name": "medication",
          "type": "bytes32"
        },
        {
          "name": "medicalLeave",
          "type": "bool"
        }
      ],
      "name": "setMedicalRecord",
      "outputs": [],
      "payable": false,
      "stateMutability": "nonpayable",
      "type": "function",
      "signature": "0xbf6b7f3d"
    },
    {
      "constant": true,
      "inputs": [
        {
          "name": "_address",
          "type": "address"
        }
      ],
      "name": "getMedicalRecord",
      "outputs": [
        {
          "name": "",
          "type": "bytes16"
        },
        {
          "name": "",
          "type": "bytes16"
        },
        {
          "name": "",
          "type": "bytes16"
        },
        {
          "name": "",
          "type": "bytes32"
        },
        {
          "name": "",
          "type": "bytes32"
        },
        {
          "name": "",
          "type": "bytes32"
        },
        {
          "name": "",
          "type": "bool"
        }
      ],
      "payable": false,
      "stateMutability": "view",
      "type": "function",
      "signature": "0x2fea1a6f"
    }
  ],
  "bytecode": "0x608060405234801561001057600080fd5b506109f4806100206000396000f3fe608060405234801561001057600080fd5b5060043610610069576000357c01000000000000000000000000000000000000000000000000000000009004806328be32d01461006e5780632fea1a6f146100dc578063bf6b7f3d146101d4578063c30275251461029a575b600080fd5b61009a6004803603602081101561008457600080fd5b81019080803590602001909291905050506102a4565b604051808273ffffffffffffffffffffffffffffffffffffffff1673ffffffffffffffffffffffffffffffffffffffff16815260200191505060405180910390f35b61011e600480360360208110156100f257600080fd5b81019080803573ffffffffffffffffffffffffffffffffffffffff1690602001909291905050506102e0565b60405180886fffffffffffffffffffffffffffffffff19166fffffffffffffffffffffffffffffffff19168152602001876fffffffffffffffffffffffffffffffff19166fffffffffffffffffffffffffffffffff19168152602001866fffffffffffffffffffffffffffffffff19166fffffffffffffffffffffffffffffffff191681526020018581526020018481526020018381526020018215151515815260200197505050505050505060405180910390f35b61029860048036036101008110156101eb57600080fd5b81019080803573ffffffffffffffffffffffffffffffffffffffff16906020019092919080356fffffffffffffffffffffffffffffffff1916906020019092919080356fffffffffffffffffffffffffffffffff1916906020019092919080356fffffffffffffffffffffffffffffffff1916906020019092919080359060200190929190803590602001909291908035906020019092919080351515906020019092919050505061053d565b005b6102a2610986565b005b600281815481106102b157fe5b906000526020600020016000915054906101000a900473ffffffffffffffffffffffffffffffffffffffff1681565b6000806000806000806000600160008973ffffffffffffffffffffffffffffffffffffffff1673ffffffffffffffffffffffffffffffffffffffff16815260200190815260200160002060000160009054906101000a900470010000000000000000000000000000000002600160008a73ffffffffffffffffffffffffffffffffffffffff1673ffffffffffffffffffffffffffffffffffffffff16815260200190815260200160002060000160109054906101000a900470010000000000000000000000000000000002600160008b73ffffffffffffffffffffffffffffffffffffffff1673ffffffffffffffffffffffffffffffffffffffff16815260200190815260200160002060010160009054906101000a900470010000000000000000000000000000000002600160008c73ffffffffffffffffffffffffffffffffffffffff1673ffffffffffffffffffffffffffffffffffffffff16815260200190815260200160002060020154600160008d73ffffffffffffffffffffffffffffffffffffffff1673ffffffffffffffffffffffffffffffffffffffff16815260200190815260200160002060030154600160008e73ffffffffffffffffffffffffffffffffffffffff1673ffffffffffffffffffffffffffffffffffffffff16815260200190815260200160002060040154600160008f73ffffffffffffffffffffffffffffffffffffffff1673ffffffffffffffffffffffffffffffffffffffff16815260200190815260200160002060050160009054906101000a900460ff169650965096509650965096509650919395979092949650565b6000809054906101000a900473ffffffffffffffffffffffffffffffffffffffff1673ffffffffffffffffffffffffffffffffffffffff163373ffffffffffffffffffffffffffffffffffffffff161461059657600080fd5b86600160008a73ffffffffffffffffffffffffffffffffffffffff1673ffffffffffffffffffffffffffffffffffffffff16815260200190815260200160002060000160006101000a8154816fffffffffffffffffffffffffffffffff02191690837001000000000000000000000000000000009004021790555085600160008a73ffffffffffffffffffffffffffffffffffffffff1673ffffffffffffffffffffffffffffffffffffffff16815260200190815260200160002060000160106101000a8154816fffffffffffffffffffffffffffffffff02191690837001000000000000000000000000000000009004021790555084600160008a73ffffffffffffffffffffffffffffffffffffffff1673ffffffffffffffffffffffffffffffffffffffff16815260200190815260200160002060010160006101000a8154816fffffffffffffffffffffffffffffffff02191690837001000000000000000000000000000000009004021790555083600160008a73ffffffffffffffffffffffffffffffffffffffff1673ffffffffffffffffffffffffffffffffffffffff1681526020019081526020016000206002018190555082600160008a73ffffffffffffffffffffffffffffffffffffffff1673ffffffffffffffffffffffffffffffffffffffff1681526020019081526020016000206003018190555081600160008a73ffffffffffffffffffffffffffffffffffffffff1673ffffffffffffffffffffffffffffffffffffffff1681526020019081526020016000206004018190555080600160008a73ffffffffffffffffffffffffffffffffffffffff1673ffffffffffffffffffffffffffffffffffffffff16815260200190815260200160002060050160006101000a81548160ff021916908315150217905550600160028990806001815401808255809150509060018203906000526020600020016000909192909190916101000a81548173ffffffffffffffffffffffffffffffffffffffff021916908373ffffffffffffffffffffffffffffffffffffffff16021790555050507fc6480e72543a46ce1ca731e7773d18cfd6666e68979d513ca9cd5bd6c140d9618787878787878760405180886fffffffffffffffffffffffffffffffff19166fffffffffffffffffffffffffffffffff19168152602001876fffffffffffffffffffffffffffffffff19166fffffffffffffffffffffffffffffffff19168152602001866fffffffffffffffffffffffffffffffff19166fffffffffffffffffffffffffffffffff191681526020018581526020018481526020018381526020018215151515815260200197505050505050505060405180910390a15050505050505050565b336000806101000a81548173ffffffffffffffffffffffffffffffffffffffff021916908373ffffffffffffffffffffffffffffffffffffffff16021790555056fea165627a7a723058206f38aa051f045f932b9fc685f681254dcd8e2aab2165f753ab7cd062a7302fef0029",
  "source": "pragma solidity ^0.5.6;\r\n\r\ncontract Owned{\r\n    \r\n     address owner;\r\n    \r\n    function getOwned() public {\r\n        owner = msg.sender;\r\n    }\r\n    \r\n   modifier onlyOwner {\r\n       require(msg.sender == owner);\r\n       _;\r\n   }\r\n}\r\n\r\ncontract MedicalRecord is Owned{\r\n    \r\n    struct medRecord{\r\n        bytes16 doctorFName;\r\n        bytes16 doctorLName;\r\n        bytes16 specialty;\r\n        bytes32 epicrisis;\r\n        bytes32 diagnosis;\r\n        bytes32 medication;\r\n        bool medicalLeave;\r\n    }\r\n    \r\n    mapping(address => medRecord) medicalRecords;\r\n    address [] public listMedicalRecords;\r\n    \r\n    event medRecordEvent(\r\n        bytes16 doctorFName,\r\n        bytes16 doctorLName,\r\n        bytes16 specialty,\r\n        bytes32 epicrisis,\r\n        bytes32 diagnosis,\r\n        bytes32 medication,\r\n        bool medicalLeave\r\n    );\r\n    \r\n    function setMedicalRecord(address _address, bytes16 doctorFName,bytes16 doctorLName,bytes16 specialty, bytes32 epicrisis, bytes32 diagnosis, bytes32 medication,bool medicalLeave) onlyOwner public{\r\n        \r\n        \r\n        medicalRecords[_address].doctorFName = doctorFName;\r\n        medicalRecords[_address].doctorLName = doctorLName;\r\n        medicalRecords[_address].specialty= specialty;\r\n        medicalRecords[_address].epicrisis = epicrisis;\r\n        medicalRecords[_address].diagnosis = diagnosis;\r\n        medicalRecords[_address].medication = medication;\r\n        medicalRecords[_address].medicalLeave = medicalLeave;\r\n        \r\n        listMedicalRecords.push (_address) -1;\r\n        emit medRecordEvent(doctorFName, doctorLName, specialty, epicrisis, diagnosis, medication, medicalLeave);}\r\n        \r\n        function getMedicalRecord (address _address) view public returns (bytes16, bytes16, bytes16, bytes32, bytes32, bytes32, bool){\r\n            return(medicalRecords[_address].doctorFName, medicalRecords[_address].doctorLName, medicalRecords[_address].specialty, medicalRecords[_address].epicrisis,\r\n            medicalRecords[_address].diagnosis, medicalRecords[_address].medication, medicalRecords[_address].medicalLeave);\r\n            \r\n        }\r\n        \r\n    }\r\n    \r\n",
  "sourcePath": "C:/Users/user/Desktop/LiventaV2/contracts/MedicalRecord.sol",
  "compiler": {
    "name": "solc",
    "version": "0.5.6+commit.b259423e.Emscripten.clang"
  },
  "schemaVersion": "3.0.6",
  "updatedAt": "2019-05-02T09:24:00.841Z",
  "devdoc": {
    "methods": {}
  },
  "userdoc": {
    "methods": {}
  }
}