{
  "contractName": "Owned",
  "abi": [
    {
      "constant": false,
      "inputs": [],
      "name": "getOwned",
      "outputs": [],
      "payable": false,
      "stateMutability": "nonpayable",
      "type": "function"
    }
  ],
  "bytecode": "0x6080604052348015600f57600080fd5b5060c08061001e6000396000f3fe6080604052348015600f57600080fd5b50600436106045576000357c010000000000000000000000000000000000000000000000000000000090048063c302752514604a575b600080fd5b60506052565b005b336000806101000a81548173ffffffffffffffffffffffffffffffffffffffff021916908373ffffffffffffffffffffffffffffffffffffffff16021790555056fea165627a7a72305820e3a9506094f9bcef96f6a0f14c5ba1ddd254e15953013f5ed8f5d425d91a70230029",
  "source": "pragma solidity ^0.5.6;\r\n\r\ncontract Owned{\r\n    \r\n     address owner;\r\n    \r\n    function getOwned() public {\r\n        owner = msg.sender;\r\n    }\r\n    \r\n   modifier onlyOwner {\r\n       require(msg.sender == owner);\r\n       _;\r\n   }\r\n}\r\n\r\ncontract MedicalRecord is Owned{\r\n    \r\n    struct medRecord{\r\n        bytes16 doctorFName;\r\n        bytes16 doctorLName;\r\n        bytes16 specialty;\r\n        bytes32 epicrisis;\r\n        bytes32 diagnosis;\r\n        bytes32 medication;\r\n        bool medicalLeave;\r\n    }\r\n    \r\n    mapping(address => medRecord) medicalRecords;\r\n    address [] public listMedicalRecords;\r\n    \r\n    event medRecordEvent(\r\n        bytes16 doctorFName,\r\n        bytes16 doctorLName,\r\n        bytes16 specialty,\r\n        bytes32 epicrisis,\r\n        bytes32 diagnosis,\r\n        bytes32 medication,\r\n        bool medicalLeave\r\n    );\r\n    \r\n    function setMedicalRecord(address _address, bytes16 doctorFName,bytes16 doctorLName,bytes16 specialty, bytes32 epicrisis, bytes32 diagnosis, bytes32 medication,bool medicalLeave) onlyOwner public{\r\n        \r\n        \r\n        medicalRecords[_address].doctorFName = doctorFName;\r\n        medicalRecords[_address].doctorLName = doctorLName;\r\n        medicalRecords[_address].specialty= specialty;\r\n        medicalRecords[_address].epicrisis = epicrisis;\r\n        medicalRecords[_address].diagnosis = diagnosis;\r\n        medicalRecords[_address].medication = medication;\r\n        medicalRecords[_address].medicalLeave = medicalLeave;\r\n        \r\n        listMedicalRecords.push (_address) -1;\r\n        emit medRecordEvent(doctorFName, doctorLName, specialty, epicrisis, diagnosis, medication, medicalLeave);}\r\n        \r\n        function getMedicalRecord (address _address) view public returns (bytes16, bytes16, bytes16, bytes32, bytes32, bytes32, bool){\r\n            return(medicalRecords[_address].doctorFName, medicalRecords[_address].doctorLName, medicalRecords[_address].specialty, medicalRecords[_address].epicrisis,\r\n            medicalRecords[_address].diagnosis, medicalRecords[_address].medication, medicalRecords[_address].medicalLeave);\r\n            \r\n        }\r\n        \r\n    }\r\n    \r\n",
  "sourcePath": "C:/Users/user/Desktop/LiventaV2/contracts/MedicalRecord.sol",
  "compiler": {
    "name": "solc",
    "version": "0.5.6+commit.b259423e.Emscripten.clang"
  },
  "schemaVersion": "3.0.6",
  "updatedAt": "2019-05-02T08:35:55.810Z",
  "devdoc": {
    "methods": {}
  },
  "userdoc": {
    "methods": {}
  }
}